{
  "_format": "hh-sol-artifact-1",
  "contractName": "DeliveryEscrow",
  "sourceName": "contracts/DeliveryEscrow.sol",
  "abi": [
    {
      "inputs": [
        {
          "internalType": "address",
          "name": "_feeRecipient",
          "type": "address"
        }
      ],
      "stateMutability": "nonpayable",
      "type": "constructor"
    },
    {
      "anonymous": false,
      "inputs": [
        {
          "indexed": true,
          "internalType": "uint256",
          "name": "jobId",
          "type": "uint256"
        }
      ],
      "name": "DeliveryConfirmed",
      "type": "event"
    },
    {
      "anonymous": false,
      "inputs": [
        {
          "indexed": true,
          "internalType": "address",
          "name": "previousRecipient",
          "type": "address"
        },
        {
          "indexed": true,
          "internalType": "address",
          "name": "newRecipient",
          "type": "address"
        }
      ],
      "name": "FeeRecipientChanged",
      "type": "event"
    },
    {
      "anonymous": false,
      "inputs": [
        {
          "indexed": true,
          "internalType": "uint256",
          "name": "jobId",
          "type": "uint256"
        },
        {
          "indexed": true,
          "internalType": "address",
          "name": "rider",
          "type": "address"
        }
      ],
      "name": "JobAccepted",
      "type": "event"
    },
    {
      "anonymous": false,
      "inputs": [
        {
          "indexed": true,
          "internalType": "uint256",
          "name": "jobId",
          "type": "uint256"
        },
        {
          "indexed": false,
          "internalType": "uint256",
          "name": "amount",
          "type": "uint256"
        }
      ],
      "name": "JobCancelled",
      "type": "event"
    },
    {
      "anonymous": false,
      "inputs": [
        {
          "indexed": true,
          "internalType": "uint256",
          "name": "jobId",
          "type": "uint256"
        },
        {
          "indexed": true,
          "internalType": "address",
          "name": "sender",
          "type": "address"
        },
        {
          "indexed": true,
          "internalType": "address",
          "name": "rider",
          "type": "address"
        },
        {
          "indexed": false,
          "internalType": "uint256",
          "name": "amount",
          "type": "uint256"
        },
        {
          "indexed": false,
          "internalType": "uint256",
          "name": "deadline",
          "type": "uint256"
        },
        {
          "indexed": false,
          "internalType": "address",
          "name": "token",
          "type": "address"
        }
      ],
      "name": "JobCreated",
      "type": "event"
    },
    {
      "anonymous": false,
      "inputs": [
        {
          "indexed": false,
          "internalType": "uint256",
          "name": "previousFee",
          "type": "uint256"
        },
        {
          "indexed": false,
          "internalType": "uint256",
          "name": "newFee",
          "type": "uint256"
        }
      ],
      "name": "JobCreationFeeChanged",
      "type": "event"
    },
    {
      "anonymous": false,
      "inputs": [
        {
          "indexed": true,
          "internalType": "address",
          "name": "previousOwner",
          "type": "address"
        },
        {
          "indexed": true,
          "internalType": "address",
          "name": "newOwner",
          "type": "address"
        }
      ],
      "name": "OwnerChanged",
      "type": "event"
    },
    {
      "anonymous": false,
      "inputs": [
        {
          "indexed": true,
          "internalType": "address",
          "name": "rider",
          "type": "address"
        },
        {
          "indexed": false,
          "internalType": "uint256",
          "name": "fee",
          "type": "uint256"
        }
      ],
      "name": "RiderRegistered",
      "type": "event"
    },
    {
      "anonymous": false,
      "inputs": [
        {
          "indexed": false,
          "internalType": "uint256",
          "name": "previousFee",
          "type": "uint256"
        },
        {
          "indexed": false,
          "internalType": "uint256",
          "name": "newFee",
          "type": "uint256"
        }
      ],
      "name": "RiderRegistrationFeeChanged",
      "type": "event"
    },
    {
      "anonymous": false,
      "inputs": [
        {
          "indexed": true,
          "internalType": "address",
          "name": "token",
          "type": "address"
        }
      ],
      "name": "TokenAdded",
      "type": "event"
    },
    {
      "anonymous": false,
      "inputs": [
        {
          "indexed": true,
          "internalType": "address",
          "name": "token",
          "type": "address"
        }
      ],
      "name": "TokenRemoved",
      "type": "event"
    },
    {
      "inputs": [],
      "name": "DEFAULT_FEE_BPS",
      "outputs": [
        {
          "internalType": "uint256",
          "name": "",
          "type": "uint256"
        }
      ],
      "stateMutability": "view",
      "type": "function"
    },
    {
      "inputs": [],
      "name": "MAX_BPS",
      "outputs": [
        {
          "internalType": "uint256",
          "name": "",
          "type": "uint256"
        }
      ],
      "stateMutability": "view",
      "type": "function"
    },
    {
      "inputs": [
        {
          "internalType": "uint256",
          "name": "_jobId",
          "type": "uint256"
        }
      ],
      "name": "acceptJob",
      "outputs": [],
      "stateMutability": "nonpayable",
      "type": "function"
    },
    {
      "inputs": [
        {
          "internalType": "address",
          "name": "_token",
          "type": "address"
        }
      ],
      "name": "addToken",
      "outputs": [],
      "stateMutability": "nonpayable",
      "type": "function"
    },
    {
      "inputs": [
        {
          "internalType": "uint256",
          "name": "_jobId",
          "type": "uint256"
        }
      ],
      "name": "cancelAndRefund",
      "outputs": [],
      "stateMutability": "nonpayable",
      "type": "function"
    },
    {
      "inputs": [
        {
          "internalType": "uint256",
          "name": "_jobId",
          "type": "uint256"
        },
        {
          "internalType": "string",
          "name": "_confirmationCode",
          "type": "string"
        }
      ],
      "name": "confirmDelivery",
      "outputs": [],
      "stateMutability": "nonpayable",
      "type": "function"
    },
    {
      "inputs": [
        {
          "internalType": "address",
          "name": "_recipient",
          "type": "address"
        },
        {
          "internalType": "address",
          "name": "_rider",
          "type": "address"
        },
        {
          "internalType": "bytes32",
          "name": "_confirmationCodeHash",
          "type": "bytes32"
        },
        {
          "internalType": "uint256",
          "name": "_durationMinutes",
          "type": "uint256"
        },
        {
          "internalType": "address",
          "name": "_token",
          "type": "address"
        }
      ],
      "name": "createJob",
      "outputs": [
        {
          "internalType": "uint256",
          "name": "",
          "type": "uint256"
        }
      ],
      "stateMutability": "payable",
      "type": "function"
    },
    {
      "inputs": [],
      "name": "feeRecipient",
      "outputs": [
        {
          "internalType": "address",
          "name": "",
          "type": "address"
        }
      ],
      "stateMutability": "view",
      "type": "function"
    },
    {
      "inputs": [
        {
          "internalType": "uint256",
          "name": "_jobId",
          "type": "uint256"
        }
      ],
      "name": "getJob",
      "outputs": [
        {
          "components": [
            {
              "internalType": "address",
              "name": "sender",
              "type": "address"
            },
            {
              "internalType": "address",
              "name": "recipient",
              "type": "address"
            },
            {
              "internalType": "address",
              "name": "rider",
              "type": "address"
            },
            {
              "internalType": "uint256",
              "name": "amount",
              "type": "uint256"
            },
            {
              "internalType": "bytes32",
              "name": "confirmationCodeHash",
              "type": "bytes32"
            },
            {
              "internalType": "uint256",
              "name": "deadline",
              "type": "uint256"
            },
            {
              "internalType": "address",
              "name": "token",
              "type": "address"
            },
            {
              "internalType": "enum DeliveryEscrow.Status",
              "name": "status",
              "type": "uint8"
            }
          ],
          "internalType": "struct DeliveryEscrow.Job",
          "name": "",
          "type": "tuple"
        }
      ],
      "stateMutability": "view",
      "type": "function"
    },
    {
      "inputs": [],
      "name": "getOpenJobs",
      "outputs": [
        {
          "internalType": "uint256[]",
          "name": "",
          "type": "uint256[]"
        }
      ],
      "stateMutability": "view",
      "type": "function"
    },
    {
      "inputs": [],
      "name": "jobCounter",
      "outputs": [
        {
          "internalType": "uint256",
          "name": "",
          "type": "uint256"
        }
      ],
      "stateMutability": "view",
      "type": "function"
    },
    {
      "inputs": [],
      "name": "jobCreationFeeBps",
      "outputs": [
        {
          "internalType": "uint256",
          "name": "",
          "type": "uint256"
        }
      ],
      "stateMutability": "view",
      "type": "function"
    },
    {
      "inputs": [
        {
          "internalType": "uint256",
          "name": "",
          "type": "uint256"
        }
      ],
      "name": "jobs",
      "outputs": [
        {
          "internalType": "address",
          "name": "sender",
          "type": "address"
        },
        {
          "internalType": "address",
          "name": "recipient",
          "type": "address"
        },
        {
          "internalType": "address",
          "name": "rider",
          "type": "address"
        },
        {
          "internalType": "uint256",
          "name": "amount",
          "type": "uint256"
        },
        {
          "internalType": "bytes32",
          "name": "confirmationCodeHash",
          "type": "bytes32"
        },
        {
          "internalType": "uint256",
          "name": "deadline",
          "type": "uint256"
        },
        {
          "internalType": "address",
          "name": "token",
          "type": "address"
        },
        {
          "internalType": "enum DeliveryEscrow.Status",
          "name": "status",
          "type": "uint8"
        }
      ],
      "stateMutability": "view",
      "type": "function"
    },
    {
      "inputs": [],
      "name": "owner",
      "outputs": [
        {
          "internalType": "address",
          "name": "",
          "type": "address"
        }
      ],
      "stateMutability": "view",
      "type": "function"
    },
    {
      "inputs": [],
      "name": "registerRider",
      "outputs": [],
      "stateMutability": "payable",
      "type": "function"
    },
    {
      "inputs": [
        {
          "internalType": "address",
          "name": "",
          "type": "address"
        }
      ],
      "name": "registeredRiders",
      "outputs": [
        {
          "internalType": "bool",
          "name": "",
          "type": "bool"
        }
      ],
      "stateMutability": "view",
      "type": "function"
    },
    {
      "inputs": [
        {
          "internalType": "address",
          "name": "_token",
          "type": "address"
        }
      ],
      "name": "removeToken",
      "outputs": [],
      "stateMutability": "nonpayable",
      "type": "function"
    },
    {
      "inputs": [],
      "name": "riderRegistrationFeeBps",
      "outputs": [
        {
          "internalType": "uint256",
          "name": "",
          "type": "uint256"
        }
      ],
      "stateMutability": "view",
      "type": "function"
    },
    {
      "inputs": [
        {
          "internalType": "address",
          "name": "_recipient",
          "type": "address"
        }
      ],
      "name": "setFeeRecipient",
      "outputs": [],
      "stateMutability": "nonpayable",
      "type": "function"
    },
    {
      "inputs": [
        {
          "internalType": "uint256",
          "name": "_bps",
          "type": "uint256"
        }
      ],
      "name": "setJobCreationFee",
      "outputs": [],
      "stateMutability": "nonpayable",
      "type": "function"
    },
    {
      "inputs": [
        {
          "internalType": "uint256",
          "name": "_bps",
          "type": "uint256"
        }
      ],
      "name": "setRiderRegistrationFee",
      "outputs": [],
      "stateMutability": "nonpayable",
      "type": "function"
    },
    {
      "inputs": [
        {
          "internalType": "address",
          "name": "",
          "type": "address"
        }
      ],
      "name": "supportedTokens",
      "outputs": [
        {
          "internalType": "bool",
          "name": "",
          "type": "bool"
        }
      ],
      "stateMutability": "view",
      "type": "function"
    },
    {
      "inputs": [
        {
          "internalType": "address",
          "name": "_newOwner",
          "type": "address"
        }
      ],
      "name": "transferOwnership",
      "outputs": [],
      "stateMutability": "nonpayable",
      "type": "function"
    }
  ],
  "bytecode": "0x60806040523480156200001157600080fd5b506040516200426238038062004262833981810160405281019062000037919062000191565b336000806101000a81548173ffffffffffffffffffffffffffffffffffffffff021916908373ffffffffffffffffffffffffffffffffffffffff16021790555080600160006101000a81548173ffffffffffffffffffffffffffffffffffffffff021916908373ffffffffffffffffffffffffffffffffffffffff160217905550607860028190555060786003819055506001600760008073ffffffffffffffffffffffffffffffffffffffff1673ffffffffffffffffffffffffffffffffffffffff16815260200190815260200160002060006101000a81548160ff02191690831515021790555050620001c3565b600080fd5b600073ffffffffffffffffffffffffffffffffffffffff82169050919050565b600062000159826200012c565b9050919050565b6200016b816200014c565b81146200017757600080fd5b50565b6000815190506200018b8162000160565b92915050565b600060208284031215620001aa57620001a962000127565b5b6000620001ba848285016200017a565b91505092915050565b61408f80620001d36000396000f3fe6080604052600436106101405760003560e01c806368c4ac26116100b6578063bf22c4571161006f578063bf22c45714610437578063d32bfb6c14610474578063d48bfca71461049d578063e74b981b146104c6578063f2fde38b146104ef578063fd967f471461051857610140565b806368c4ac26146103485780638da5cb5b14610385578063adab8264146103b0578063b2118388146103ba578063b4d228c0146103e3578063b5344e551461040e57610140565b80635302dcdb116101085780635302dcdb1461023557806357cf1e10146102605780635c814c931461029d5780635fa7b584146102c657806362e96e99146102ef57806363b2f3c91461031f57610140565b80631321c95e14610145578063180aedf31461017057806333d8262c146101b457806346904840146101df57806350355d761461020a575b600080fd5b34801561015157600080fd5b5061015a610543565b6040516101679190612bbd565b60405180910390f35b34801561017c57600080fd5b5061019760048036038101906101929190612c15565b6106ad565b6040516101ab989796959493929190612d22565b60405180910390f35b3480156101c057600080fd5b506101c9610782565b6040516101d69190612da0565b60405180910390f35b3480156101eb57600080fd5b506101f4610787565b6040516102019190612dbb565b60405180910390f35b34801561021657600080fd5b5061021f6107ad565b60405161022c9190612da0565b60405180910390f35b34801561024157600080fd5b5061024a6107b3565b6040516102579190612da0565b60405180910390f35b34801561026c57600080fd5b5061028760048036038101906102829190612e02565b6107b9565b6040516102949190612e4a565b60405180910390f35b3480156102a957600080fd5b506102c460048036038101906102bf9190612c15565b6107d9565b005b3480156102d257600080fd5b506102ed60048036038101906102e89190612e02565b6108f1565b005b61030960048036038101906103049190612e91565b610aa9565b6040516103169190612da0565b60405180910390f35b34801561032b57600080fd5b5061034660048036038101906103419190612c15565b61126b565b005b34801561035457600080fd5b5061036f600480360381019061036a9190612e02565b611574565b60405161037c9190612e4a565b60405180910390f35b34801561039157600080fd5b5061039a611594565b6040516103a79190612dbb565b60405180910390f35b6103b86115b8565b005b3480156103c657600080fd5b506103e160048036038101906103dc9190612f71565b611922565b005b3480156103ef57600080fd5b506103f8611d30565b6040516104059190612da0565b60405180910390f35b34801561041a57600080fd5b5061043560048036038101906104309190612c15565b611d36565b005b34801561044357600080fd5b5061045e60048036038101906104599190612c15565b611e4e565b60405161046b91906130a0565b60405180910390f35b34801561048057600080fd5b5061049b60048036038101906104969190612c15565b61202d565b005b3480156104a957600080fd5b506104c460048036038101906104bf9190612e02565b61249e565b005b3480156104d257600080fd5b506104ed60048036038101906104e89190612e02565b6126c6565b005b3480156104fb57600080fd5b5061051660048036038101906105119190612e02565b612883565b005b34801561052457600080fd5b5061052d612a3d565b60405161053a9190612da0565b60405180910390f35b60606000805b6005548110156105be576000600481111561056757610566612cab565b5b6004600083815260200190815260200160002060060160149054906101000a900460ff16600481111561059d5761059c612cab565b5b036105b15781806105ad906130eb565b9250505b8080600101915050610549565b5060008167ffffffffffffffff8111156105db576105da613133565b5b6040519080825280602002602001820160405280156106095781602001602082028036833780820191505090505b5090506000805b6005548110156106a3576000600481111561062e5761062d612cab565b5b6004600083815260200190815260200160002060060160149054906101000a900460ff16600481111561066457610663612cab565b5b036106965780838380610676906130eb565b94508151811061068957610688613162565b5b6020026020010181815250505b8080600101915050610610565b5081935050505090565b60046020528060005260406000206000915090508060000160009054906101000a900473ffffffffffffffffffffffffffffffffffffffff16908060010160009054906101000a900473ffffffffffffffffffffffffffffffffffffffff16908060020160009054906101000a900473ffffffffffffffffffffffffffffffffffffffff16908060030154908060040154908060050154908060060160009054906101000a900473ffffffffffffffffffffffffffffffffffffffff16908060060160149054906101000a900460ff16905088565b607881565b600160009054906101000a900473ffffffffffffffffffffffffffffffffffffffff1681565b60055481565b60025481565b60066020528060005260406000206000915054906101000a900460ff1681565b60008054906101000a900473ffffffffffffffffffffffffffffffffffffffff1673ffffffffffffffffffffffffffffffffffffffff163373ffffffffffffffffffffffffffffffffffffffff1614610867576040517f08c379a000000000000000000000000000000000000000000000000000000000815260040161085e906131ee565b60405180910390fd5b6127108111156108ac576040517f08c379a00000000000000000000000000000000000000000000000000000000081526004016108a39061325a565b60405180910390fd5b7f3388db1f527bb9195397f60db8fbac71d71baa54b1624a7f9431d75fc64e4cb9600254826040516108df92919061327a565b60405180910390a18060028190555050565b60008054906101000a900473ffffffffffffffffffffffffffffffffffffffff1673ffffffffffffffffffffffffffffffffffffffff163373ffffffffffffffffffffffffffffffffffffffff161461097f576040517f08c379a0000000000000000000000000000000000000000000000000000000008152600401610976906131ee565b60405180910390fd5b600760008273ffffffffffffffffffffffffffffffffffffffff1673ffffffffffffffffffffffffffffffffffffffff16815260200190815260200160002060009054906101000a900460ff16610a0b576040517f08c379a0000000000000000000000000000000000000000000000000000000008152600401610a02906132ef565b60405180910390fd5b6000600760008373ffffffffffffffffffffffffffffffffffffffff1673ffffffffffffffffffffffffffffffffffffffff16815260200190815260200160002060006101000a81548160ff0219169083151502179055508073ffffffffffffffffffffffffffffffffffffffff167f4c910b69fe65a61f7531b9c5042b2329ca7179c77290aa7e2eb3afa3c8511fd360405160405180910390a250565b60008073ffffffffffffffffffffffffffffffffffffffff168673ffffffffffffffffffffffffffffffffffffffff1603610b19576040517f08c379a0000000000000000000000000000000000000000000000000000000008152600401610b109061335b565b60405180910390fd5b8573ffffffffffffffffffffffffffffffffffffffff163373ffffffffffffffffffffffffffffffffffffffff1603610b87576040517f08c379a0000000000000000000000000000000000000000000000000000000008152600401610b7e906133c7565b60405180910390fd5b60008311610bca576040517f08c379a0000000000000000000000000000000000000000000000000000000008152600401610bc190613433565b60405180910390fd5b6000801b8403610c0f576040517f08c379a0000000000000000000000000000000000000000000000000000000008152600401610c069061349f565b60405180910390fd5b600760008373ffffffffffffffffffffffffffffffffffffffff1673ffffffffffffffffffffffffffffffffffffffff16815260200190815260200160002060009054906101000a900460ff16610c9b576040517f08c379a0000000000000000000000000000000000000000000000000000000008152600401610c929061350b565b60405180910390fd5b600073ffffffffffffffffffffffffffffffffffffffff168573ffffffffffffffffffffffffffffffffffffffff1614610dac578473ffffffffffffffffffffffffffffffffffffffff163373ffffffffffffffffffffffffffffffffffffffff1603610d3d576040517f08c379a0000000000000000000000000000000000000000000000000000000008152600401610d3490613577565b60405180910390fd5b8473ffffffffffffffffffffffffffffffffffffffff168673ffffffffffffffffffffffffffffffffffffffff1603610dab576040517f08c379a0000000000000000000000000000000000000000000000000000000008152600401610da2906135e3565b60405180910390fd5b5b600060056000815480929190610dc1906130eb565b9190505590506000603c85610dd69190613603565b42610de19190613645565b9050600080600073ffffffffffffffffffffffffffffffffffffffff168673ffffffffffffffffffffffffffffffffffffffff1603610f005760003411610e5d576040517f08c379a0000000000000000000000000000000000000000000000000000000008152600401610e54906136c5565b60405180910390fd5b61271060025434610e6e9190613603565b610e789190613714565b90508034610e869190613745565b91506000811115610efb57600160009054906101000a900473ffffffffffffffffffffffffffffffffffffffff1673ffffffffffffffffffffffffffffffffffffffff166108fc829081150290604051600060405180830381858888f19350505050158015610ef9573d6000803e3d6000fd5b505b610fcc565b6000905034915060008211610f4a576040517f08c379a0000000000000000000000000000000000000000000000000000000008152600401610f41906137c5565b60405180910390fd5b8573ffffffffffffffffffffffffffffffffffffffff166323b872dd3330856040518463ffffffff1660e01b8152600401610f87939291906137e5565b6020604051808303816000875af1158015610fa6573d6000803e3d6000fd5b505050506040513d601f19601f82011682018060405250810190610fca9190613848565b505b6040518061010001604052803373ffffffffffffffffffffffffffffffffffffffff1681526020018b73ffffffffffffffffffffffffffffffffffffffff1681526020018a73ffffffffffffffffffffffffffffffffffffffff1681526020018381526020018981526020018481526020018773ffffffffffffffffffffffffffffffffffffffff1681526020016000600481111561106e5761106d612cab565b5b8152506004600086815260200190815260200160002060008201518160000160006101000a81548173ffffffffffffffffffffffffffffffffffffffff021916908373ffffffffffffffffffffffffffffffffffffffff16021790555060208201518160010160006101000a81548173ffffffffffffffffffffffffffffffffffffffff021916908373ffffffffffffffffffffffffffffffffffffffff16021790555060408201518160020160006101000a81548173ffffffffffffffffffffffffffffffffffffffff021916908373ffffffffffffffffffffffffffffffffffffffff160217905550606082015181600301556080820151816004015560a0820151816005015560c08201518160060160006101000a81548173ffffffffffffffffffffffffffffffffffffffff021916908373ffffffffffffffffffffffffffffffffffffffff16021790555060e08201518160060160146101000a81548160ff021916908360048111156111e9576111e8612cab565b5b02179055509050508873ffffffffffffffffffffffffffffffffffffffff163373ffffffffffffffffffffffffffffffffffffffff16857fd6c45598801d0f0d3a1edadaa982a700dbfcd83bcec2f2aec17af36df939209885878b60405161125393929190613875565b60405180910390a48394505050505095945050505050565b60006004600083815260200190815260200160002090506000600481111561129657611295612cab565b5b8160060160149054906101000a900460ff1660048111156112ba576112b9612cab565b5b146112fa576040517f08c379a00000000000000000000000000000000000000000000000000000000081526004016112f1906138f8565b60405180910390fd5b80600501544210611340576040517f08c379a000000000000000000000000000000000000000000000000000000000815260040161133790613964565b60405180910390fd5b600073ffffffffffffffffffffffffffffffffffffffff168160020160009054906101000a900473ffffffffffffffffffffffffffffffffffffffff1673ffffffffffffffffffffffffffffffffffffffff160361146c57600660003373ffffffffffffffffffffffffffffffffffffffff1673ffffffffffffffffffffffffffffffffffffffff16815260200190815260200160002060009054906101000a900460ff16611424576040517f08c379a000000000000000000000000000000000000000000000000000000000815260040161141b906139d0565b60405180910390fd5b338160020160006101000a81548173ffffffffffffffffffffffffffffffffffffffff021916908373ffffffffffffffffffffffffffffffffffffffff1602179055506114ff565b8060020160009054906101000a900473ffffffffffffffffffffffffffffffffffffffff1673ffffffffffffffffffffffffffffffffffffffff163373ffffffffffffffffffffffffffffffffffffffff16146114fe576040517f08c379a00000000000000000000000000000000000000000000000000000000081526004016114f590613a3c565b60405180910390fd5b5b60018160060160146101000a81548160ff0219169083600481111561152757611526612cab565b5b02179055503373ffffffffffffffffffffffffffffffffffffffff16827f4426e4a90a9570c8f678a263b11785eaaade8b79d76d18c43d4d8e00062e4f8360405160405180910390a35050565b60076020528060005260406000206000915054906101000a900460ff1681565b60008054906101000a900473ffffffffffffffffffffffffffffffffffffffff1681565b600860009054906101000a900460ff1615611608576040517f08c379a00000000000000000000000000000000000000000000000000000000081526004016115ff90613aa8565b60405180910390fd5b6001600860006101000a81548160ff021916908315150217905550600660003373ffffffffffffffffffffffffffffffffffffffff1673ffffffffffffffffffffffffffffffffffffffff16815260200190815260200160002060009054906101000a900460ff16156116b0576040517f08c379a00000000000000000000000000000000000000000000000000000000081526004016116a790613b14565b60405180910390fd5b600073ffffffffffffffffffffffffffffffffffffffff163373ffffffffffffffffffffffffffffffffffffffff160361171f576040517f08c379a000000000000000000000000000000000000000000000000000000000815260040161171690613b80565b60405180910390fd5b6000612710670de0b6b3a764000060035461173a9190613603565b6117449190613714565b9050600081111561185e5780341015611792576040517f08c379a000000000000000000000000000000000000000000000000000000000815260040161178990613bec565b60405180910390fd5b600081346117a09190613745565b905060008111156117f3573373ffffffffffffffffffffffffffffffffffffffff166108fc829081150290604051600060405180830381858888f193505050501580156117f1573d6000803e3d6000fd5b505b600160009054906101000a900473ffffffffffffffffffffffffffffffffffffffff1673ffffffffffffffffffffffffffffffffffffffff166108fc839081150290604051600060405180830381858888f1935050505015801561185b573d6000803e3d6000fd5b50505b6001600660003373ffffffffffffffffffffffffffffffffffffffff1673ffffffffffffffffffffffffffffffffffffffff16815260200190815260200160002060006101000a81548160ff0219169083151502179055503373ffffffffffffffffffffffffffffffffffffffff167fc417e69cc85f56ac8495757dceb63eb538181d06b65962fa7a523608f0490ac4826040516118fc9190612da0565b60405180910390a2506000600860006101000a81548160ff021916908315150217905550565b600860009054906101000a900460ff1615611972576040517f08c379a000000000000000000000000000000000000000000000000000000000815260040161196990613aa8565b60405180910390fd5b6001600860006101000a81548160ff0219169083151502179055506000600460008581526020019081526020016000209050600160048111156119b8576119b7612cab565b5b8160060160149054906101000a900460ff1660048111156119dc576119db612cab565b5b14611a1c576040517f08c379a0000000000000000000000000000000000000000000000000000000008152600401611a1390613c58565b60405180910390fd5b80600501544210611a62576040517f08c379a0000000000000000000000000000000000000000000000000000000008152600401611a5990613964565b60405180910390fd5b6006838390501015611aa9576040517f08c379a0000000000000000000000000000000000000000000000000000000008152600401611aa090613cc4565b60405180910390fd5b60008383604051602001611abe929190613d23565b60405160208183030381529060405280519060200120905081600401548114611b1c576040517f08c379a0000000000000000000000000000000000000000000000000000000008152600401611b1390613d88565b60405180910390fd5b60028260060160146101000a81548160ff02191690836004811115611b4457611b43612cab565b5b0217905550600073ffffffffffffffffffffffffffffffffffffffff168260060160009054906101000a900473ffffffffffffffffffffffffffffffffffffffff1673ffffffffffffffffffffffffffffffffffffffff1603611c15578160020160009054906101000a900473ffffffffffffffffffffffffffffffffffffffff1673ffffffffffffffffffffffffffffffffffffffff166108fc83600301549081150290604051600060405180830381858888f19350505050158015611c0f573d6000803e3d6000fd5b50611ce1565b8160060160009054906101000a900473ffffffffffffffffffffffffffffffffffffffff1673ffffffffffffffffffffffffffffffffffffffff1663a9059cbb8360020160009054906101000a900473ffffffffffffffffffffffffffffffffffffffff1684600301546040518363ffffffff1660e01b8152600401611c9c929190613da8565b6020604051808303816000875af1158015611cbb573d6000803e3d6000fd5b505050506040513d601f19601f82011682018060405250810190611cdf9190613848565b505b847f375b4005eeae25d0e37d56e1b3841d3bb394b277efa2548de3293f5dcb7a349360405160405180910390a250506000600860006101000a81548160ff021916908315150217905550505050565b60035481565b60008054906101000a900473ffffffffffffffffffffffffffffffffffffffff1673ffffffffffffffffffffffffffffffffffffffff163373ffffffffffffffffffffffffffffffffffffffff1614611dc4576040517f08c379a0000000000000000000000000000000000000000000000000000000008152600401611dbb906131ee565b60405180910390fd5b612710811115611e09576040517f08c379a0000000000000000000000000000000000000000000000000000000008152600401611e009061325a565b60405180910390fd5b7ffef27bb8a0cef24b0cfb88ae4a7b466a3493738692cedcccbd39d6b70f02d0a860035482604051611e3c92919061327a565b60405180910390a18060038190555050565b611e56612a43565b60046000838152602001908152602001600020604051806101000160405290816000820160009054906101000a900473ffffffffffffffffffffffffffffffffffffffff1673ffffffffffffffffffffffffffffffffffffffff1673ffffffffffffffffffffffffffffffffffffffff1681526020016001820160009054906101000a900473ffffffffffffffffffffffffffffffffffffffff1673ffffffffffffffffffffffffffffffffffffffff1673ffffffffffffffffffffffffffffffffffffffff1681526020016002820160009054906101000a900473ffffffffffffffffffffffffffffffffffffffff1673ffffffffffffffffffffffffffffffffffffffff1673ffffffffffffffffffffffffffffffffffffffff1681526020016003820154815260200160048201548152602001600582015481526020016006820160009054906101000a900473ffffffffffffffffffffffffffffffffffffffff1673ffffffffffffffffffffffffffffffffffffffff1673ffffffffffffffffffffffffffffffffffffffff1681526020016006820160149054906101000a900460ff1660048111156120105761200f612cab565b5b600481111561202257612021612cab565b5b815250509050919050565b600860009054906101000a900460ff161561207d576040517f08c379a000000000000000000000000000000000000000000000000000000000815260040161207490613aa8565b60405180910390fd5b6001600860006101000a81548160ff02191690831515021790555060006004600083815260200190815260200160002090508060000160009054906101000a900473ffffffffffffffffffffffffffffffffffffffff1673ffffffffffffffffffffffffffffffffffffffff163373ffffffffffffffffffffffffffffffffffffffff1614612141576040517f08c379a000000000000000000000000000000000000000000000000000000000815260040161213890613e1d565b60405180910390fd5b6000600481111561215557612154612cab565b5b8160060160149054906101000a900460ff16600481111561217957612178612cab565b5b14806121ba57506001600481111561219457612193612cab565b5b8160060160149054906101000a900460ff1660048111156121b8576121b7612cab565b5b145b6121f9576040517f08c379a00000000000000000000000000000000000000000000000000000000081526004016121f090613e89565b60405180910390fd5b6001600481111561220d5761220c612cab565b5b8160060160149054906101000a900460ff16600481111561223157612230612cab565b5b0361227e57806005015442101561227d576040517f08c379a000000000000000000000000000000000000000000000000000000000815260040161227490613ef5565b60405180910390fd5b5b60038160060160146101000a81548160ff021916908360048111156122a6576122a5612cab565b5b0217905550600073ffffffffffffffffffffffffffffffffffffffff168160060160009054906101000a900473ffffffffffffffffffffffffffffffffffffffff1673ffffffffffffffffffffffffffffffffffffffff1603612377578060000160009054906101000a900473ffffffffffffffffffffffffffffffffffffffff1673ffffffffffffffffffffffffffffffffffffffff166108fc82600301549081150290604051600060405180830381858888f19350505050158015612371573d6000803e3d6000fd5b50612443565b8060060160009054906101000a900473ffffffffffffffffffffffffffffffffffffffff1673ffffffffffffffffffffffffffffffffffffffff1663a9059cbb8260000160009054906101000a900473ffffffffffffffffffffffffffffffffffffffff1683600301546040518363ffffffff1660e01b81526004016123fe929190613da8565b6020604051808303816000875af115801561241d573d6000803e3d6000fd5b505050506040513d601f19601f820116820180604052508101906124419190613848565b505b817f7e3805011acb8d49832d7ef085841e251e66267c06e54e0ac20cb09f3c696d3b82600301546040516124779190612da0565b60405180910390a2506000600860006101000a81548160ff02191690831515021790555050565b60008054906101000a900473ffffffffffffffffffffffffffffffffffffffff1673ffffffffffffffffffffffffffffffffffffffff163373ffffffffffffffffffffffffffffffffffffffff161461252c576040517f08c379a0000000000000000000000000000000000000000000000000000000008152600401612523906131ee565b60405180910390fd5b600073ffffffffffffffffffffffffffffffffffffffff168173ffffffffffffffffffffffffffffffffffffffff160361259b576040517f08c379a000000000000000000000000000000000000000000000000000000000815260040161259290613f61565b60405180910390fd5b600760008273ffffffffffffffffffffffffffffffffffffffff1673ffffffffffffffffffffffffffffffffffffffff16815260200190815260200160002060009054906101000a900460ff1615612628576040517f08c379a000000000000000000000000000000000000000000000000000000000815260040161261f90613fcd565b60405180910390fd5b6001600760008373ffffffffffffffffffffffffffffffffffffffff1673ffffffffffffffffffffffffffffffffffffffff16815260200190815260200160002060006101000a81548160ff0219169083151502179055508073ffffffffffffffffffffffffffffffffffffffff167f784c8f4dbf0ffedd6e72c76501c545a70f8b203b30a26ce542bf92ba87c248a460405160405180910390a250565b60008054906101000a900473ffffffffffffffffffffffffffffffffffffffff1673ffffffffffffffffffffffffffffffffffffffff163373ffffffffffffffffffffffffffffffffffffffff1614612754576040517f08c379a000000000000000000000000000000000000000000000000000000000815260040161274b906131ee565b60405180910390fd5b600073ffffffffffffffffffffffffffffffffffffffff168173ffffffffffffffffffffffffffffffffffffffff16036127c3576040517f08c379a00000000000000000000000000000000000000000000000000000000081526004016127ba90614039565b60405180910390fd5b8073ffffffffffffffffffffffffffffffffffffffff16600160009054906101000a900473ffffffffffffffffffffffffffffffffffffffff1673ffffffffffffffffffffffffffffffffffffffff167f0bc21fe5c3ab742ff1d15b5c4477ffbacf1167e618228078fa625edebe7f331d60405160405180910390a380600160006101000a81548173ffffffffffffffffffffffffffffffffffffffff021916908373ffffffffffffffffffffffffffffffffffffffff16021790555050565b60008054906101000a900473ffffffffffffffffffffffffffffffffffffffff1673ffffffffffffffffffffffffffffffffffffffff163373ffffffffffffffffffffffffffffffffffffffff1614612911576040517f08c379a0000000000000000000000000000000000000000000000000000000008152600401612908906131ee565b60405180910390fd5b600073ffffffffffffffffffffffffffffffffffffffff168173ffffffffffffffffffffffffffffffffffffffff1603612980576040517f08c379a000000000000000000000000000000000000000000000000000000000815260040161297790614039565b60405180910390fd5b8073ffffffffffffffffffffffffffffffffffffffff1660008054906101000a900473ffffffffffffffffffffffffffffffffffffffff1673ffffffffffffffffffffffffffffffffffffffff167fb532073b38c83145e3e5135377a08bf9aab55bc0fd7c1179cd4fb995d2a5159c60405160405180910390a3806000806101000a81548173ffffffffffffffffffffffffffffffffffffffff021916908373ffffffffffffffffffffffffffffffffffffffff16021790555050565b61271081565b604051806101000160405280600073ffffffffffffffffffffffffffffffffffffffff168152602001600073ffffffffffffffffffffffffffffffffffffffff168152602001600073ffffffffffffffffffffffffffffffffffffffff168152602001600081526020016000801916815260200160008152602001600073ffffffffffffffffffffffffffffffffffffffff16815260200160006004811115612aef57612aee612cab565b5b81525090565b600081519050919050565b600082825260208201905092915050565b6000819050602082019050919050565b6000819050919050565b612b3481612b21565b82525050565b6000612b468383612b2b565b60208301905092915050565b6000602082019050919050565b6000612b6a82612af5565b612b748185612b00565b9350612b7f83612b11565b8060005b83811015612bb0578151612b978882612b3a565b9750612ba283612b52565b925050600181019050612b83565b5085935050505092915050565b60006020820190508181036000830152612bd78184612b5f565b905092915050565b600080fd5b600080fd5b612bf281612b21565b8114612bfd57600080fd5b50565b600081359050612c0f81612be9565b92915050565b600060208284031215612c2b57612c2a612bdf565b5b6000612c3984828501612c00565b91505092915050565b600073ffffffffffffffffffffffffffffffffffffffff82169050919050565b6000612c6d82612c42565b9050919050565b612c7d81612c62565b82525050565b612c8c81612b21565b82525050565b6000819050919050565b612ca581612c92565b82525050565b7f4e487b7100000000000000000000000000000000000000000000000000000000600052602160045260246000fd5b60058110612ceb57612cea612cab565b5b50565b6000819050612cfc82612cda565b919050565b6000612d0c82612cee565b9050919050565b612d1c81612d01565b82525050565b600061010082019050612d38600083018b612c74565b612d45602083018a612c74565b612d526040830189612c74565b612d5f6060830188612c83565b612d6c6080830187612c9c565b612d7960a0830186612c83565b612d8660c0830185612c74565b612d9360e0830184612d13565b9998505050505050505050565b6000602082019050612db56000830184612c83565b92915050565b6000602082019050612dd06000830184612c74565b92915050565b612ddf81612c62565b8114612dea57600080fd5b50565b600081359050612dfc81612dd6565b92915050565b600060208284031215612e1857612e17612bdf565b5b6000612e2684828501612ded565b91505092915050565b60008115159050919050565b612e4481612e2f565b82525050565b6000602082019050612e5f6000830184612e3b565b92915050565b612e6e81612c92565b8114612e7957600080fd5b50565b600081359050612e8b81612e65565b92915050565b600080600080600060a08688031215612ead57612eac612bdf565b5b6000612ebb88828901612ded565b9550506020612ecc88828901612ded565b9450506040612edd88828901612e7c565b9350506060612eee88828901612c00565b9250506080612eff88828901612ded565b9150509295509295909350565b600080fd5b600080fd5b600080fd5b60008083601f840112612f3157612f30612f0c565b5b8235905067ffffffffffffffff811115612f4e57612f4d612f11565b5b602083019150836001820283011115612f6a57612f69612f16565b5b9250929050565b600080600060408486031215612f8a57612f89612bdf565b5b6000612f9886828701612c00565b935050602084013567ffffffffffffffff811115612fb957612fb8612be4565b5b612fc586828701612f1b565b92509250509250925092565b612fda81612c62565b82525050565b612fe981612c92565b82525050565b612ff881612d01565b82525050565b610100820160008201516130156000850182612fd1565b5060208201516130286020850182612fd1565b50604082015161303b6040850182612fd1565b50606082015161304e6060850182612b2b565b5060808201516130616080850182612fe0565b5060a082015161307460a0850182612b2b565b5060c082015161308760c0850182612fd1565b5060e082015161309a60e0850182612fef565b50505050565b6000610100820190506130b66000830184612ffe565b92915050565b7f4e487b7100000000000000000000000000000000000000000000000000000000600052601160045260246000fd5b60006130f682612b21565b91507fffffffffffffffffffffffffffffffffffffffffffffffffffffffffffffffff8203613128576131276130bc565b5b600182019050919050565b7f4e487b7100000000000000000000000000000000000000000000000000000000600052604160045260246000fd5b7f4e487b7100000000000000000000000000000000000000000000000000000000600052603260045260246000fd5b600082825260208201905092915050565b7f4f6e6c79206f776e657200000000000000000000000000000000000000000000600082015250565b60006131d8600a83613191565b91506131e3826131a2565b602082019050919050565b60006020820190508181036000830152613207816131cb565b9050919050565b7f4665652065786365656473206d6178696d756d00000000000000000000000000600082015250565b6000613244601383613191565b915061324f8261320e565b602082019050919050565b6000602082019050818103600083015261327381613237565b9050919050565b600060408201905061328f6000830185612c83565b61329c6020830184612c83565b9392505050565b7f4e6f7420737570706f7274656400000000000000000000000000000000000000600082015250565b60006132d9600d83613191565b91506132e4826132a3565b602082019050919050565b60006020820190508181036000830152613308816132cc565b9050919050565b7f496e76616c696420726563697069656e74000000000000000000000000000000600082015250565b6000613345601183613191565b91506133508261330f565b602082019050919050565b6000602082019050818103600083015261337481613338565b9050919050565b7f53656e6465722063616e6e6f7420626520726563697069656e74000000000000600082015250565b60006133b1601a83613191565b91506133bc8261337b565b602082019050919050565b600060208201905081810360008301526133e0816133a4565b9050919050565b7f496e76616c6964206475726174696f6e00000000000000000000000000000000600082015250565b600061341d601083613191565b9150613428826133e7565b602082019050919050565b6000602082019050818103600083015261344c81613410565b9050919050565b7f496e76616c696420636f64652068617368000000000000000000000000000000600082015250565b6000613489601183613191565b915061349482613453565b602082019050919050565b600060208201905081810360008301526134b88161347c565b9050919050565b7f556e737570706f7274656420746f6b656e000000000000000000000000000000600082015250565b60006134f5601183613191565b9150613500826134bf565b602082019050919050565b60006020820190508181036000830152613524816134e8565b9050919050565b7f53656e6465722063616e6e6f7420626520726964657200000000000000000000600082015250565b6000613561601683613191565b915061356c8261352b565b602082019050919050565b6000602082019050818103600083015261359081613554565b9050919050565b7f526563697069656e742063616e6e6f7420626520726964657200000000000000600082015250565b60006135cd601983613191565b91506135d882613597565b602082019050919050565b600060208201905081810360008301526135fc816135c0565b9050919050565b600061360e82612b21565b915061361983612b21565b925082820261362781612b21565b9150828204841483151761363e5761363d6130bc565b5b5092915050565b600061365082612b21565b915061365b83612b21565b9250828201905080821115613673576136726130bc565b5b92915050565b7f4d7573742073656e642066756e64730000000000000000000000000000000000600082015250565b60006136af600f83613191565b91506136ba82613679565b602082019050919050565b600060208201905081810360008301526136de816136a2565b9050919050565b7f4e487b7100000000000000000000000000000000000000000000000000000000600052601260045260246000fd5b600061371f82612b21565b915061372a83612b21565b92508261373a576137396136e5565b5b828204905092915050565b600061375082612b21565b915061375b83612b21565b9250828203905081811115613773576137726130bc565b5b92915050565b7f4d757374207370656369667920746f6b656e20616d6f756e7400000000000000600082015250565b60006137af601983613191565b91506137ba82613779565b602082019050919050565b600060208201905081810360008301526137de816137a2565b9050919050565b60006060820190506137fa6000830186612c74565b6138076020830185612c74565b6138146040830184612c83565b949350505050565b61382581612e2f565b811461383057600080fd5b50565b6000815190506138428161381c565b92915050565b60006020828403121561385e5761385d612bdf565b5b600061386c84828501613833565b91505092915050565b600060608201905061388a6000830186612c83565b6138976020830185612c83565b6138a46040830184612c74565b949350505050565b7f4e6f7420696e2063726561746564207374617475730000000000000000000000600082015250565b60006138e2601583613191565b91506138ed826138ac565b602082019050919050565b60006020820190508181036000830152613911816138d5565b9050919050565b7f5061737420646561646c696e6500000000000000000000000000000000000000600082015250565b600061394e600d83613191565b915061395982613918565b602082019050919050565b6000602082019050818103600083015261397d81613941565b9050919050565b7f4e6f742061207265676973746572656420726964657200000000000000000000600082015250565b60006139ba601683613191565b91506139c582613984565b602082019050919050565b600060208201905081810360008301526139e9816139ad565b9050919050565b7f4f6e6c792064657369676e617465642072696465722063616e20616363657074600082015250565b6000613a26602083613191565b9150613a31826139f0565b602082019050919050565b60006020820190508181036000830152613a5581613a19565b9050919050565b7f5265656e7472616e742063616c6c000000000000000000000000000000000000600082015250565b6000613a92600e83613191565b9150613a9d82613a5c565b602082019050919050565b60006020820190508181036000830152613ac181613a85565b9050919050565b7f416c726561647920726567697374657265640000000000000000000000000000600082015250565b6000613afe601283613191565b9150613b0982613ac8565b602082019050919050565b60006020820190508181036000830152613b2d81613af1565b9050919050565b7f496e76616c69642073656e646572000000000000000000000000000000000000600082015250565b6000613b6a600e83613191565b9150613b7582613b34565b602082019050919050565b60006020820190508181036000830152613b9981613b5d565b9050919050565b7f496e73756666696369656e7420726567697374726174696f6e20666565000000600082015250565b6000613bd6601d83613191565b9150613be182613ba0565b602082019050919050565b60006020820190508181036000830152613c0581613bc9565b9050919050565b7f4a6f62206e6f7420616363657074656400000000000000000000000000000000600082015250565b6000613c42601083613191565b9150613c4d82613c0c565b602082019050919050565b60006020820190508181036000830152613c7181613c35565b9050919050565b7f436f646520746f6f2073686f7274000000000000000000000000000000000000600082015250565b6000613cae600e83613191565b9150613cb982613c78565b602082019050919050565b60006020820190508181036000830152613cdd81613ca1565b9050919050565b600081905092915050565b82818337600083830152505050565b6000613d0a8385613ce4565b9350613d17838584613cef565b82840190509392505050565b6000613d30828486613cfe565b91508190509392505050565b7f496e76616c696420636f64650000000000000000000000000000000000000000600082015250565b6000613d72600c83613191565b9150613d7d82613d3c565b602082019050919050565b60006020820190508181036000830152613da181613d65565b9050919050565b6000604082019050613dbd6000830185612c74565b613dca6020830184612c83565b9392505050565b7f4f6e6c792073656e6465722063616e2063616e63656c00000000000000000000600082015250565b6000613e07601683613191565b9150613e1282613dd1565b602082019050919050565b60006020820190508181036000830152613e3681613dfa565b9050919050565b7f43616e6e6f742063616e63656c00000000000000000000000000000000000000600082015250565b6000613e73600d83613191565b9150613e7e82613e3d565b602082019050919050565b60006020820190508181036000830152613ea281613e66565b9050919050565b7f4e6f742065787069726564207965740000000000000000000000000000000000600082015250565b6000613edf600f83613191565b9150613eea82613ea9565b602082019050919050565b60006020820190508181036000830152613f0e81613ed2565b9050919050565b7f557365206e6174697665204d4f4e000000000000000000000000000000000000600082015250565b6000613f4b600e83613191565b9150613f5682613f15565b602082019050919050565b60006020820190508181036000830152613f7a81613f3e565b9050919050565b7f416c726561647920737570706f72746564000000000000000000000000000000600082015250565b6000613fb7601183613191565b9150613fc282613f81565b602082019050919050565b60006020820190508181036000830152613fe681613faa565b9050919050565b7f496e76616c696420616464726573730000000000000000000000000000000000600082015250565b6000614023600f83613191565b915061402e82613fed565b602082019050919050565b6000602082019050818103600083015261405281614016565b905091905056fea26469706673582212207166a1c5e72de41d22afe55a3fa90d5a4f0568e682bdccb38c33dcc450655d0764736f6c63430008180033",
  "linkReferences": {},
  "deployedLinkReferences": {}
}