{
  "_format": "hh-sol-artifact-1",
  "contractName": "DeliveryEscrow",
  "sourceName": "contracts/DeliveryEscrow.sol",
  "abi": [
    {
      "inputs": [
        {
          "internalType": "address",
          "name": "_feeRecipient",
          "type": "address"
        }
      ],
      "stateMutability": "nonpayable",
      "type": "constructor"
    },
    {
      "anonymous": false,
      "inputs": [
        {
          "indexed": true,
          "internalType": "uint256",
          "name": "jobId",
          "type": "uint256"
        }
      ],
      "name": "DeliveryConfirmed",
      "type": "event"
    },
    {
      "anonymous": false,
      "inputs": [
        {
          "indexed": true,
          "internalType": "address",
          "name": "previousRecipient",
          "type": "address"
        },
        {
          "indexed": true,
          "internalType": "address",
          "name": "newRecipient",
          "type": "address"
        }
      ],
      "name": "FeeRecipientChanged",
      "type": "event"
    },
    {
      "anonymous": false,
      "inputs": [
        {
          "indexed": true,
          "internalType": "uint256",
          "name": "jobId",
          "type": "uint256"
        },
        {
          "indexed": true,
          "internalType": "address",
          "name": "rider",
          "type": "address"
        }
      ],
      "name": "JobAccepted",
      "type": "event"
    },
    {
      "anonymous": false,
      "inputs": [
        {
          "indexed": true,
          "internalType": "uint256",
          "name": "jobId",
          "type": "uint256"
        },
        {
          "indexed": false,
          "internalType": "uint256",
          "name": "amount",
          "type": "uint256"
        }
      ],
      "name": "JobCancelled",
      "type": "event"
    },
    {
      "anonymous": false,
      "inputs": [
        {
          "indexed": true,
          "internalType": "uint256",
          "name": "jobId",
          "type": "uint256"
        },
        {
          "indexed": true,
          "internalType": "address",
          "name": "sender",
          "type": "address"
        },
        {
          "indexed": true,
          "internalType": "address",
          "name": "rider",
          "type": "address"
        },
        {
          "indexed": false,
          "internalType": "uint256",
          "name": "amount",
          "type": "uint256"
        },
        {
          "indexed": false,
          "internalType": "uint256",
          "name": "deadline",
          "type": "uint256"
        },
        {
          "indexed": false,
          "internalType": "address",
          "name": "token",
          "type": "address"
        },
        {
          "indexed": false,
          "internalType": "uint256",
          "name": "pin",
          "type": "uint256"
        },
        {
          "indexed": false,
          "internalType": "bytes32",
          "name": "pickupLocationHash",
          "type": "bytes32"
        },
        {
          "indexed": false,
          "internalType": "bytes32",
          "name": "deliveryLocationHash",
          "type": "bytes32"
        }
      ],
      "name": "JobCreated",
      "type": "event"
    },
    {
      "anonymous": false,
      "inputs": [
        {
          "indexed": false,
          "internalType": "uint256",
          "name": "previousFee",
          "type": "uint256"
        },
        {
          "indexed": false,
          "internalType": "uint256",
          "name": "newFee",
          "type": "uint256"
        }
      ],
      "name": "JobCreationFeeChanged",
      "type": "event"
    },
    {
      "anonymous": false,
      "inputs": [
        {
          "indexed": true,
          "internalType": "address",
          "name": "previousOwner",
          "type": "address"
        },
        {
          "indexed": true,
          "internalType": "address",
          "name": "newOwner",
          "type": "address"
        }
      ],
      "name": "OwnerChanged",
      "type": "event"
    },
    {
      "anonymous": false,
      "inputs": [
        {
          "indexed": true,
          "internalType": "address",
          "name": "rider",
          "type": "address"
        },
        {
          "indexed": false,
          "internalType": "uint256",
          "name": "fee",
          "type": "uint256"
        }
      ],
      "name": "RiderRegistered",
      "type": "event"
    },
    {
      "anonymous": false,
      "inputs": [
        {
          "indexed": false,
          "internalType": "uint256",
          "name": "previousFee",
          "type": "uint256"
        },
        {
          "indexed": false,
          "internalType": "uint256",
          "name": "newFee",
          "type": "uint256"
        }
      ],
      "name": "RiderRegistrationFeeChanged",
      "type": "event"
    },
    {
      "anonymous": false,
      "inputs": [
        {
          "indexed": true,
          "internalType": "address",
          "name": "token",
          "type": "address"
        }
      ],
      "name": "TokenAdded",
      "type": "event"
    },
    {
      "anonymous": false,
      "inputs": [
        {
          "indexed": true,
          "internalType": "address",
          "name": "token",
          "type": "address"
        }
      ],
      "name": "TokenRemoved",
      "type": "event"
    },
    {
      "inputs": [],
      "name": "DEFAULT_FEE_BPS",
      "outputs": [
        {
          "internalType": "uint256",
          "name": "",
          "type": "uint256"
        }
      ],
      "stateMutability": "view",
      "type": "function"
    },
    {
      "inputs": [],
      "name": "MAX_BPS",
      "outputs": [
        {
          "internalType": "uint256",
          "name": "",
          "type": "uint256"
        }
      ],
      "stateMutability": "view",
      "type": "function"
    },
    {
      "inputs": [
        {
          "internalType": "uint256",
          "name": "_jobId",
          "type": "uint256"
        }
      ],
      "name": "acceptJob",
      "outputs": [],
      "stateMutability": "nonpayable",
      "type": "function"
    },
    {
      "inputs": [
        {
          "internalType": "address",
          "name": "_token",
          "type": "address"
        }
      ],
      "name": "addToken",
      "outputs": [],
      "stateMutability": "nonpayable",
      "type": "function"
    },
    {
      "inputs": [
        {
          "internalType": "uint256",
          "name": "_jobId",
          "type": "uint256"
        }
      ],
      "name": "cancelAndRefund",
      "outputs": [],
      "stateMutability": "nonpayable",
      "type": "function"
    },
    {
      "inputs": [
        {
          "internalType": "uint256",
          "name": "_jobId",
          "type": "uint256"
        },
        {
          "internalType": "string",
          "name": "_confirmationCode",
          "type": "string"
        }
      ],
      "name": "confirmDelivery",
      "outputs": [],
      "stateMutability": "nonpayable",
      "type": "function"
    },
    {
      "inputs": [
        {
          "internalType": "address",
          "name": "_recipient",
          "type": "address"
        },
        {
          "internalType": "address",
          "name": "_rider",
          "type": "address"
        },
        {
          "internalType": "uint256",
          "name": "_durationMinutes",
          "type": "uint256"
        },
        {
          "internalType": "address",
          "name": "_token",
          "type": "address"
        },
        {
          "internalType": "uint256",
          "name": "_tokenAmount",
          "type": "uint256"
        },
        {
          "internalType": "bytes32",
          "name": "_pickupLocationHash",
          "type": "bytes32"
        },
        {
          "internalType": "bytes32",
          "name": "_deliveryLocationHash",
          "type": "bytes32"
        }
      ],
      "name": "createJob",
      "outputs": [
        {
          "internalType": "uint256",
          "name": "",
          "type": "uint256"
        }
      ],
      "stateMutability": "payable",
      "type": "function"
    },
    {
      "inputs": [],
      "name": "feeRecipient",
      "outputs": [
        {
          "internalType": "address",
          "name": "",
          "type": "address"
        }
      ],
      "stateMutability": "view",
      "type": "function"
    },
    {
      "inputs": [
        {
          "internalType": "uint256",
          "name": "_jobId",
          "type": "uint256"
        }
      ],
      "name": "getJob",
      "outputs": [
        {
          "components": [
            {
              "internalType": "address",
              "name": "sender",
              "type": "address"
            },
            {
              "internalType": "address",
              "name": "recipient",
              "type": "address"
            },
            {
              "internalType": "address",
              "name": "rider",
              "type": "address"
            },
            {
              "internalType": "uint256",
              "name": "amount",
              "type": "uint256"
            },
            {
              "internalType": "bytes32",
              "name": "confirmationCodeHash",
              "type": "bytes32"
            },
            {
              "internalType": "uint256",
              "name": "deadline",
              "type": "uint256"
            },
            {
              "internalType": "address",
              "name": "token",
              "type": "address"
            },
            {
              "internalType": "bytes32",
              "name": "pickupLocationHash",
              "type": "bytes32"
            },
            {
              "internalType": "bytes32",
              "name": "deliveryLocationHash",
              "type": "bytes32"
            },
            {
              "internalType": "enum DeliveryEscrow.Status",
              "name": "status",
              "type": "uint8"
            }
          ],
          "internalType": "struct DeliveryEscrow.Job",
          "name": "",
          "type": "tuple"
        }
      ],
      "stateMutability": "view",
      "type": "function"
    },
    {
      "inputs": [
        {
          "internalType": "uint256",
          "name": "_jobId",
          "type": "uint256"
        }
      ],
      "name": "getJobPin",
      "outputs": [
        {
          "internalType": "string",
          "name": "",
          "type": "string"
        }
      ],
      "stateMutability": "view",
      "type": "function"
    },
    {
      "inputs": [],
      "name": "getOpenJobs",
      "outputs": [
        {
          "internalType": "uint256[]",
          "name": "",
          "type": "uint256[]"
        }
      ],
      "stateMutability": "view",
      "type": "function"
    },
    {
      "inputs": [
        {
          "internalType": "uint256",
          "name": "",
          "type": "uint256"
        }
      ],
      "name": "jobConfirmationCodes",
      "outputs": [
        {
          "internalType": "string",
          "name": "",
          "type": "string"
        }
      ],
      "stateMutability": "view",
      "type": "function"
    },
    {
      "inputs": [],
      "name": "jobCounter",
      "outputs": [
        {
          "internalType": "uint256",
          "name": "",
          "type": "uint256"
        }
      ],
      "stateMutability": "view",
      "type": "function"
    },
    {
      "inputs": [],
      "name": "jobCreationFeeBps",
      "outputs": [
        {
          "internalType": "uint256",
          "name": "",
          "type": "uint256"
        }
      ],
      "stateMutability": "view",
      "type": "function"
    },
    {
      "inputs": [
        {
          "internalType": "uint256",
          "name": "",
          "type": "uint256"
        }
      ],
      "name": "jobs",
      "outputs": [
        {
          "internalType": "address",
          "name": "sender",
          "type": "address"
        },
        {
          "internalType": "address",
          "name": "recipient",
          "type": "address"
        },
        {
          "internalType": "address",
          "name": "rider",
          "type": "address"
        },
        {
          "internalType": "uint256",
          "name": "amount",
          "type": "uint256"
        },
        {
          "internalType": "bytes32",
          "name": "confirmationCodeHash",
          "type": "bytes32"
        },
        {
          "internalType": "uint256",
          "name": "deadline",
          "type": "uint256"
        },
        {
          "internalType": "address",
          "name": "token",
          "type": "address"
        },
        {
          "internalType": "bytes32",
          "name": "pickupLocationHash",
          "type": "bytes32"
        },
        {
          "internalType": "bytes32",
          "name": "deliveryLocationHash",
          "type": "bytes32"
        },
        {
          "internalType": "enum DeliveryEscrow.Status",
          "name": "status",
          "type": "uint8"
        }
      ],
      "stateMutability": "view",
      "type": "function"
    },
    {
      "inputs": [],
      "name": "owner",
      "outputs": [
        {
          "internalType": "address",
          "name": "",
          "type": "address"
        }
      ],
      "stateMutability": "view",
      "type": "function"
    },
    {
      "inputs": [],
      "name": "registerRider",
      "outputs": [],
      "stateMutability": "payable",
      "type": "function"
    },
    {
      "inputs": [
        {
          "internalType": "address",
          "name": "",
          "type": "address"
        }
      ],
      "name": "registeredRiders",
      "outputs": [
        {
          "internalType": "bool",
          "name": "",
          "type": "bool"
        }
      ],
      "stateMutability": "view",
      "type": "function"
    },
    {
      "inputs": [
        {
          "internalType": "address",
          "name": "_token",
          "type": "address"
        }
      ],
      "name": "removeToken",
      "outputs": [],
      "stateMutability": "nonpayable",
      "type": "function"
    },
    {
      "inputs": [],
      "name": "riderRegistrationFeeBps",
      "outputs": [
        {
          "internalType": "uint256",
          "name": "",
          "type": "uint256"
        }
      ],
      "stateMutability": "view",
      "type": "function"
    },
    {
      "inputs": [
        {
          "internalType": "address",
          "name": "_recipient",
          "type": "address"
        }
      ],
      "name": "setFeeRecipient",
      "outputs": [],
      "stateMutability": "nonpayable",
      "type": "function"
    },
    {
      "inputs": [
        {
          "internalType": "uint256",
          "name": "_bps",
          "type": "uint256"
        }
      ],
      "name": "setJobCreationFee",
      "outputs": [],
      "stateMutability": "nonpayable",
      "type": "function"
    },
    {
      "inputs": [
        {
          "internalType": "uint256",
          "name": "_bps",
          "type": "uint256"
        }
      ],
      "name": "setRiderRegistrationFee",
      "outputs": [],
      "stateMutability": "nonpayable",
      "type": "function"
    },
    {
      "inputs": [
        {
          "internalType": "address",
          "name": "",
          "type": "address"
        }
      ],
      "name": "supportedTokens",
      "outputs": [
        {
          "internalType": "bool",
          "name": "",
          "type": "bool"
        }
      ],
      "stateMutability": "view",
      "type": "function"
    },
    {
      "inputs": [
        {
          "internalType": "address",
          "name": "_newOwner",
          "type": "address"
        }
      ],
      "name": "transferOwnership",
      "outputs": [],
      "stateMutability": "nonpayable",
      "type": "function"
    }
  ],
  "bytecode": "0x60803461009d57601f611fce38819003918201601f19168301916001600160401b038311848410176100a25780849260209460405283398101031261009d57516001600160a01b0381169081900361009d5760018060a01b0319338160005416176000556001541617600155607860025560786003556000805260076020526040600020600160ff19825416179055604051611f1590816100b98239f35b600080fd5b634e487b7160e01b600052604160045260246000fdfe6080604052600436101561001257600080fd5b60003560e01c806306dcadc0146114cb5780631321c95e14611963578063180aedf3146118ba57806333d8262c1461189e578063469048401461187557806350355d76146118575780635302dcdb1461183957806357cf1e10146117fa5780635c814c931461178c5780635fa7b584146116cf57806363b2f3c91461154657806368c4ac2614611507578063894d3ddf146114cb5780638da5cb5b146114a2578063a21defcc14610c32578063adab826414610a32578063b2118388146107b0578063b4d228c014610792578063b5344e5514610724578063bf22c457146105c2578063d32bfb6c14610343578063d48bfca714610244578063e74b981b146101c7578063f2fde38b146101515763fd967f471461012f57600080fd5b3461014c57600036600319011261014c5760206040516127108152f35b600080fd5b3461014c57602036600319011261014c5761016a611c3e565b6000546001600160a01b0380821692610184338514611c7b565b168092610192821515611db4565b7fb532073b38c83145e3e5135377a08bf9aab55bc0fd7c1179cd4fb995d2a5159c600080a36001600160a01b03191617600055005b3461014c57602036600319011261014c576101e0611c3e565b6000546001600160a01b039182916101fb9083163314611c7b565b1690610208821515611db4565b816001549182167f0bc21fe5c3ab742ff1d15b5c4477ffbacf1167e618228078fa625edebe7f331d600080a36001600160a01b03191617600155005b3461014c57602036600319011261014c5761025d611c3e565b6000546001600160a01b0391906102779083163314611c7b565b16801561030d5780600052600760205260ff604060002054166102d4578060005260076020526040600020600160ff198254161790557f784c8f4dbf0ffedd6e72c76501c545a70f8b203b30a26ce542bf92ba87c248a4600080a2005b60405162461bcd60e51b8152602060048201526011602482015270105b1c9958591e481cdd5c1c1bdc9d1959607a1b6044820152606490fd5b60405162461bcd60e51b815260206004820152600e60248201526d2ab9b2903730ba34bb329026a7a760911b6044820152606490fd5b3461014c5760208060031936011261014c576004356009549161036960ff841615611d77565b600160ff1980941617600955816000526004815260406000209060018060a01b03808354168033036105845760098401805460ff811660058110158061052c5781158015610577575b156105425761052c5760018991146104e3575b166003179055600684015482168061044557505060008080809386541660038701549082821561043c575bf1156104305760037f7e3805011acb8d49832d7ef085841e251e66267c06e54e0ac20cb09f3c696d3b925b0154604051908152a260095416600955600080f35b6040513d6000823e3d90fd5b506108fc6103f0565b600385015460405163a9059cbb60e01b81526001600160a01b039390931660048401526024830152909391508290849060449082906000905af1908115610430577f7e3805011acb8d49832d7ef085841e251e66267c06e54e0ac20cb09f3c696d3b936003926104b6575b5061041b565b6104d590843d86116104dc575b6104cd8183611b1b565b810190611d5f565b50866104b0565b503d6104c3565b50600586015442106104f557876103c5565b60405162461bcd60e51b815260048101869052600f60248201526e139bdd08195e1c1a5c9959081e595d608a1b6044820152606490fd5b634e487b7160e01b600052602160045260246000fd5b60405162461bcd60e51b815260048101889052600d60248201526c10d85b9b9bdd0818d85b98d95b609a1b6044820152606490fd5b50506000600182146103b2565b60405162461bcd60e51b815260048101849052601660248201527513db9b1e481cd95b99195c8818d85b8818d85b98d95b60521b6044820152606490fd5b3461014c57602036600319011261014c5760006101206040516105e481611ae2565b8281528260208201528260408201528260608201528260808201528260a08201528260c08201528260e08201528261010082015201526004356000526004602052604060002060405161063681611ae2565b60018060a01b03908183541681528160018401541690602081019182528260028501541693604082019485526003810154926060830193845260048201549060808401918252600583015460a08501908152866006850154169060c0860191825260078501549360e0870194855260ff60096008880154976101008a019889520154169761012088019760058a101561052c576101409b8b809781936107229d8d526040519e8f9151169052511660208d0152511660408b01525160608a01525160808901525160a0880152511660c08601525160e08501525161010084015251610120830190611c31565bf35b3461014c57602036600319011261014c5760043561074d60018060a01b03600054163314611c7b565b61075b612710821115611cb4565b7ffef27bb8a0cef24b0cfb88ae4a7b466a3493738692cedcccbd39d6b70f02d0a860406003548151908152836020820152a1600355005b3461014c57600036600319011261014c576020600354604051908152f35b3461014c57604036600319011261014c5760043560249081359167ffffffffffffffff80841161014c573660238501121561014c57836004013590811161014c573682828601011161014c576009549361080d60ff861615611d77565b600160ff19809616176009558360005260209160048352604060002093600985019283549260ff84166005811015610a1d576001036109e65761085560058801544210611cf6565b600681106109b1576108828660405183819487848401970187378101600083820152038084520182611b1b565b51902060048601540361097f57508516600217905560068201546001600160a01b03919082168061090c5750506000808360038295946002849601541691015490828215610903575bf115610430575b7f375b4005eeae25d0e37d56e1b3841d3bb394b277efa2548de3293f5dcb7a3493600080a260095416600955600080f35b506108fc6108cb565b600284015460039094015460405163a9059cbb60e01b8152939094166001600160a01b0316600484015260248301939093529182908290816000816044810103925af1801561043057610961575b50506108d2565b8161097792903d106104dc576104cd8183611b1b565b50828061095a565b83600c6064926040519262461bcd60e51b845260048401528201526b496e76616c696420636f646560a01b6044820152fd5b60405162461bcd60e51b815260048101879052600e818501526d10dbd919481d1bdbc81cda1bdc9d60921b6044820152606490fd5b60405162461bcd60e51b8152600481018790526010818501526f129bd8881b9bdd081858d8d95c1d195960821b6044820152606490fd5b83634e487b7160e01b60005260216004526000fd5b600036600319011261014c57600954610a4e60ff821615611d77565b600160ff19809216176009553360005260206006815260ff60406000205416610bf9573315610bc457600354670de0b6b3a764000090818102918183041490151715610bae5761271090049081158015610af1575b507fc417e69cc85f56ac8495757dceb63eb538181d06b65962fa7a523608f0490ac490336000526006815260406000206001858254161790556040519283523392a260095416600955600080f35b823410610b69578290610b048234611d52565b80158015610b3e575b50506000808093819360018060a01b0360015416908390610b35575bf1156104305783610aa3565b506108fc610b29565b600080939450809281928290610b60575b3390f1156104305782908580610b0d565b506108fc610b4f565b60405162461bcd60e51b815260048101839052601d60248201527f496e73756666696369656e7420726567697374726174696f6e206665650000006044820152606490fd5b634e487b7160e01b600052601160045260246000fd5b6064906040519062461bcd60e51b82526004820152600e60248201526d24b73b30b634b21039b2b73232b960911b6044820152fd5b6064906040519062461bcd60e51b825260048201526012602482015271105b1c9958591e481c9959da5cdd195c995960721b6044820152fd5b60e036600319011261014c57610c46611c3e565b602435906001600160a01b038216820361014c5760643591604435906001600160a01b038416840361014c576001600160a01b0383161561146957336001600160a01b038416146114245781156113ec576001600160a01b03841660009081526007602052604090205460ff16156113b3576001600160a01b03811661130d575b60055491610cd483611c54565b60055580603c810204603c03610bae57603c610cf1910242611d45565b92604051924260208501524460408501523360601b6060850152806074850152607484528360a081011067ffffffffffffffff60a0860111176112a75760a08401604052620f424093848151602083012006948510156112d35750610d5584611e1f565b9260405194610d6386611aff565b600686526020368188013784516006039760068911610bae5760005b8981106112bd575060005b8651811015610dcb576001908a610dc4610db9836001600160f81b0319610db1828e611e0e565b511693611d45565b9160001a918b611e0e565b5301610d8a565b5090869291886040516020810190610dfd60208281610df08b87815193849201611be2565b8101038084520182611b1b565b5190209486600052600860205260406000209080519067ffffffffffffffff82116112a7578190610e2e8454611aa8565b601f8111611257575b50602090601f83116001146111eb576000926111e0575b50508160011b916000199060031b1c19161790555b6001600160a01b03821661109b57341561106457612710610e8660025434611d32565b0494610e928634611d52565b9580158015611034575b50505b60405197610eac89611ae2565b33895260018060a01b0316602089015260018060a01b038516604089015285606089015260808801528060a088015260018060a01b03821660c088015260a43560e088015260c43561010088015260006101208801528560005260046020526101206009604060002060018060a01b038a51166bffffffffffffffffffffffff60a01b90818354161782556001820160018060a01b0360208d015116828254161790556002820160018060a01b0360408d0151168282541617905560608b0151600383015560808b0151600483015560a08b01516005830155600682019060018060a01b0360c08d0151169082541617905560e08a015160078201556101008a015160088201550197015196600588101561052c5760209760ff801983541691161790556040519485528685015260018060a01b03166040840152606083015260a435608083015260c43560a083015260018060a01b031690827f0bc848525d39916659836d7b55bf2104296d47b07d12a128eb13088a2416902060c03393a4604051908152f35b6000808093819360018060a01b036001541690839061105b575bf115610430578880610e9c565b506108fc61104e565b60405162461bcd60e51b815260206004820152600f60248201526e4d7573742073656e642066756e647360881b6044820152606490fd5b6084351561119b576127106110b4600254608435611d32565b04946110c286608435611d52565b6040516323b872dd60e01b8152336004820152306024820152608435604482015290969060208160648160006001600160a01b038a165af180156104305761117c575b5080611112575b50610e9f565b60015460405163a9059cbb60e01b81526001600160a01b03909116600482015260248101919091526020818060448101038160006001600160a01b0389165af18015610430571561110c576111759060203d6020116104dc576104cd8183611b1b565b508861110c565b6111949060203d6020116104dc576104cd8183611b1b565b5089611105565b60405162461bcd60e51b815260206004820152601960248201527f4d757374207370656369667920746f6b656e20616d6f756e74000000000000006044820152606490fd5b015190508a80610e4e565b9250836000526020600020906000935b601f198416851061123c576001945083601f19811610611223575b505050811b019055610e63565b015160001960f88460031b161c191690558a8080611216565b818101518355602094850194600190930192909101906111fb565b909150836000526020600020601f840160051c8101602085106112a0575b90849392915b601f830160051c82018110611291575050610e37565b6000815585945060010161127b565b5080611275565b634e487b7160e01b600052604160045260246000fd5b8060306112cc6001938b611e0e565b5301610d7f565b60a060649162461bcd60e51b82820152602060a4820152601060c48201526f50494e206f7574206f662072616e676560801b60e482015201fd5b336001600160a01b03821614611375576001600160a01b0381811690841603610cc75760405162461bcd60e51b815260206004820152601960248201527f526563697069656e742063616e6e6f74206265207269646572000000000000006044820152606490fd5b60405162461bcd60e51b815260206004820152601660248201527529b2b73232b91031b0b73737ba103132903934b232b960511b6044820152606490fd5b60405162461bcd60e51b81526020600482015260116024820152702ab739bab83837b93a32b2103a37b5b2b760791b6044820152606490fd5b60405162461bcd60e51b815260206004820152601060248201526f24b73b30b634b210323ab930ba34b7b760811b6044820152606490fd5b60405162461bcd60e51b815260206004820152601a60248201527f53656e6465722063616e6e6f7420626520726563697069656e740000000000006044820152606490fd5b60405162461bcd60e51b8152602060048201526011602482015270125b9d985b1a59081c9958da5c1a595b9d607a1b6044820152606490fd5b3461014c57600036600319011261014c576000546040516001600160a01b039091168152602090f35b3461014c57602036600319011261014c5760043560005260086020526115036114f76040600020611b3d565b60405191829182611c05565b0390f35b3461014c57602036600319011261014c576001600160a01b03611528611c3e565b166000526007602052602060ff604060002054166040519015158152f35b3461014c5760208060031936011261014c57600435908160005260048152604060002090600982019160ff835416600581101561052c576116925780611593600560029301544210611cf6565b01805490916001600160a01b0382168061163f5750336000526006815260ff604060002054161561160257506001600160a01b031916331790555b805460ff1916600117905533907f4426e4a90a9570c8f678a263b11785eaaade8b79d76d18c43d4d8e00062e4f83600080a3005b6064906040519062461bcd60e51b8252600482015260166024820152752737ba1030903932b3b4b9ba32b932b2103934b232b960511b6044820152fd5b91509150330361164f57506115ce565b6064906040519062461bcd60e51b825280600483015260248201527f4f6e6c792064657369676e617465642072696465722063616e206163636570746044820152fd5b60405162461bcd60e51b81526004810183905260156024820152744e6f7420696e20637265617465642073746174757360581b6044820152606490fd5b3461014c57602036600319011261014c576116e8611c3e565b6000546001600160a01b0391906117029083163314611c7b565b1680600052600760205260ff604060002054161561175757806000526007602052604060002060ff1981541690557f4c910b69fe65a61f7531b9c5042b2329ca7179c77290aa7e2eb3afa3c8511fd3600080a2005b60405162461bcd60e51b815260206004820152600d60248201526c139bdd081cdd5c1c1bdc9d1959609a1b6044820152606490fd5b3461014c57602036600319011261014c576004356117b560018060a01b03600054163314611c7b565b6117c3612710821115611cb4565b7f3388db1f527bb9195397f60db8fbac71d71baa54b1624a7f9431d75fc64e4cb960406002548151908152836020820152a1600255005b3461014c57602036600319011261014c576001600160a01b0361181b611c3e565b166000526006602052602060ff604060002054166040519015158152f35b3461014c57600036600319011261014c576020600254604051908152f35b3461014c57600036600319011261014c576020600554604051908152f35b3461014c57600036600319011261014c576001546040516001600160a01b039091168152602090f35b3461014c57600036600319011261014c57602060405160788152f35b3461014c57602036600319011261014c576004356000526004602052610140604060002061072260018060a01b0380835416928160018201541691806002830154169060038301549060048401546005850154916006860154169260078601549460ff6009600889015498015416976040519a8b5260208b015260408a01526060890152608088015260a087015260c086015260e0850152610100840152610120830190611c31565b3461014c57600036600319011261014c5760058054906000805b838110611a6957506119a761199182611c63565b9161199f6040519384611b1b565b808352611c63565b6020938285019391601f190136853760009160005b828110611a0657868587604051928392818401908285525180915260408401929160005b8281106119ef57505050500390f35b8351855286955093810193928101926001016119e0565b806000526004875260ff600960406000200154168281101561052c5715611a30575b6001016119bc565b92611a3a81611c54565b938551821015611a535790821b85018701819052611a28565b634e487b7160e01b600052603260045260246000fd5b80600052600460205260ff600960406000200154168381101561052c5715611a94575b60010161197d565b90611aa0600191611c54565b919050611a8c565b90600182811c92168015611ad8575b6020831014611ac257565b634e487b7160e01b600052602260045260246000fd5b91607f1691611ab7565b610140810190811067ffffffffffffffff8211176112a757604052565b6040810190811067ffffffffffffffff8211176112a757604052565b90601f8019910116810190811067ffffffffffffffff8211176112a757604052565b90604051918260008254611b5081611aa8565b90818452602094600191600181169081600014611bc05750600114611b81575b505050611b7f92500383611b1b565b565b600090815285812095935091905b818310611ba8575050611b7f9350820101388080611b70565b85548884018501529485019487945091830191611b8f565b92505050611b7f94925060ff191682840152151560051b820101388080611b70565b60005b838110611bf55750506000910152565b8181015183820152602001611be5565b60409160208252611c258151809281602086015260208686019101611be2565b601f01601f1916010190565b90600582101561052c5752565b600435906001600160a01b038216820361014c57565b6000198114610bae5760010190565b67ffffffffffffffff81116112a75760051b60200190565b15611c8257565b60405162461bcd60e51b815260206004820152600a60248201526927b7363c9037bbb732b960b11b6044820152606490fd5b15611cbb57565b60405162461bcd60e51b81526020600482015260136024820152724665652065786365656473206d6178696d756d60681b6044820152606490fd5b15611cfd57565b60405162461bcd60e51b815260206004820152600d60248201526c5061737420646561646c696e6560981b6044820152606490fd5b81810292918115918404141715610bae57565b91908201809211610bae57565b91908203918211610bae57565b9081602091031261014c5751801515810361014c5790565b15611d7e57565b60405162461bcd60e51b815260206004820152600e60248201526d1499595b9d1c985b9d0818d85b1b60921b6044820152606490fd5b15611dbb57565b60405162461bcd60e51b815260206004820152600f60248201526e496e76616c6964206164647265737360881b6044820152606490fd5b67ffffffffffffffff81116112a757601f01601f191660200190565b908151811015611a53570160200190565b8015611ec15780816000925b611eab5750611e3982611df2565b91611e476040519384611b1b565b80835281601f19611e5783611df2565b013660208601375b611e6857505090565b6000198101908111610bae578091600a9160308383068101809111610bae5760f81b6001600160f81b03191660001a90611ea29086611e0e565b53049081611e5f565b9091611eb8600a91611c54565b92910480611e2b565b50604051611ece81611aff565b60018152600360fc1b60208201529056fea264697066735822122032ef0c2918230c16e7851a58b50e3711958272e577190f672570c35c9cfcd32e64736f6c63430008180033",
  "linkReferences": {},
  "deployedLinkReferences": {}
}